:1000000059C073C072C071C070C06FC06EC06DC087
:100010006CC06BC06AC05EC368C067C066C065C0A4
:1000200064C063C062C054656D702E3A2000430006
:10003000506F7765723A20006D5600496E666F7298
:100040006D6174696F6E206973206E6F74207265C4
:1000500063656976656400416363657373206465F5
:100060006E696564004572726F7220636F6D6D61B9
:100070006E64004F4B004641494C00556E6B6E6FED
:10008000776E20636F6D6D616E64002B434D544934
:100090003A2022534D22002B435041533A20300046
:1000A0002B434D47533A002B435042533A002B43C6
:1000B00053513A0011241FBECFE5D4E0DEBFCDBFBF
:1000C00011E0A0E6B0E0EEE3FFE102C005900D9282
:1000D000A032B107D9F712E0A0E2B1E001C01D9251
:1000E000A531B107E1F7C7D128CF8ACF87EC87B90F
:1000F00086EC86B90895369A349BFECF64B175B10B
:1001000080E090E024E233E140E050E099DD28EE29
:1001100033E040E050E0C6DDC9010895DF93CF939E
:1001200000D0CDB7DEB78FEF90E09A83898381E06E
:1001300060E070E0A2D48FE79FE4A2E1815090409C
:10014000A040E1F700C0000088E2BE016F5F7F4F72
:100150006DD529813A812F503040C9010F900F9001
:10016000CF91DF910895DF93CF93CDB7DEB7299775
:100170000FB6F894DEBF0FBECDBF80E090E0BE01A9
:100180006F5F7F4F49E0D6D68D818076803631F023
:1001900080E090E06B814C8120E6A7D629960FB6CF
:1001A000F894DEBF0FBECDBFCF91DF910895EF92DF
:1001B000FF920F931F93DF93CF93CDB7DEB72A97AC
:1001C0000FB6F894DEBF0FBECDBF7C01A7DF8E0156
:1001D0000F5F1F4FB8014AE076D4F7011082C701C4
:1001E00066E270E0CDDDC701B8011FDEC7016EE237
:1001F00070E0C6DD2A960FB6F894DEBF0FBECDBF05
:10020000CF91DF911F910F91FF90EF900895EF92A2
:10021000FF920F931F93DF93CF93CDB7DEB72A974B
:100220000FB6F894DEBF0FBECDBF7C0164DF8E0138
:100230000F5F1F4FB8014AE050E05BDEF70110820C
:10024000C70160E370E09CDDC701B801EEDDC701C6
:1002500068E370E095DD2A960FB6F894DEBF0FBE16
:10026000CDBFCF91DF911F910F91FF90EF90089537
:10027000EF92FF920F931F93DF93CF93CDB7DEB72B
:1002800064970FB6F894DEBF0FBECDBF7C01FC01B2
:1002900010828E010F5F1F4FC80189DFC701B801AF
:1002A000C4DDC70160E670E0C0DDC801B0DFC70192
:1002B000B801BBDD64960FB6F894DEBF0FBECDBFAC
:1002C000CF91DF911F910F91FF90EF9008951F93B1
:1002D000CF93DF93EC0110E00AC08FEF90E7A2E02C
:1002E00081509040A040E1F700C000001F5F80E215
:1002F00091E0F1DB813011F0143679F710E080E005
:1003000090E0AFDB882331F080E291E0BADB143675
:10031000A1F40CC08FEF90E7A2E081509040A04084
:10032000E1F700C000001F5F143649F7109220016A
:1003300080E291E06BE370E023DD1882CE0160E2A1
:1003400071E073DDDF91CF911F9108950F931F939B
:10035000DF93CF93CDB7DEB7C85CD0400FB6F8942B
:10036000DEBF0FBECDBF8E010B591F4FC801BE01AE
:100370006B5E7F4FAE014F5F5F4F5FD9F8018081A9
:10038000882309F46CC019A69981992341F4853317
:1003900009F446C0CE01899667E570E056C0833304
:1003A000B9F1843330F4813351F0823309F049C01C
:1003B0002BC0843389F1853309F043C031C0F80183
:1003C00001900020E9F73197E01BF10BE330F105D4
:1003D000B0F0D8011296E0E2F1E080E09D919193B7
:1003E0008F5F853019F09C919132C0F7E82FF0E0D3
:1003F000E05EFE4F1082CE01899669DF27C0CE01F4
:10040000899665E670E021C0CE018996D0DE1EC0D7
:10041000CE018996FCDE1AC0CE01899629DF16C06E
:10042000CE0145966FD89E01275D3F4F81309105E3
:1004300021F4C90163E770E008C0C90166E770E014
:1004400004C0CE0189966BE770E09ADC8D89882321
:1004500031F0CE018996BE016B5E7F4FE2D7C85363
:10046000DF4F0FB6F894DEBF0FBECDBFCF91DF9147
:100470001F910F9108950F931F93DF93CF93CDB7E3
:10048000DEB7C456D0400FB6F894DEBF0FBECDBF66
:1004900018BA17BA15BA83E084BB12BA80E181BBDF
:1004A00089E190E049D083E390E065E370E044E3C4
:1004B00050E020E063D657DE19DE5EDB789480E002
:1004C00062E670E0DCD982E690E05DDA57D785B36A
:1004D00092E0892785BB8E010F5F1F4FA1D0882333
:1004E000E9F3C801A3D089818823C1F3823311F4D1
:1004F00095D8F4CFC8016BE870E072DC009771F317
:1005000025DFECCF1F9310914001112399F0109239
:10051000A60186EA91E061E471E087DC10930C02A9
:1005200080910B0280930D021092400110920B02F9
:10053000109241011F91089590BD89B986E880BD50
:1005400088E98AB910920C0210920D0210924001B3
:1005500010920B0208955D9BFECF8CB90895EF9227
:10056000FF92CF93DF93E82EE7017E01F92EE7019A
:1005700001C0F1DF89918823E1F7DF91CF91FF90EE
:10058000EF900895DF93CF93CDB7DEB72A970FB6DC
:10059000F894DEBF0FBECDBFBE016F5F7F4F4AE054
:1005A00050E04EDCDCDF2A960FB6F894DEBF0FBEBB
:1005B000CDBFCF91DF910895DF93CF93CDB7DEB755
:1005C0002A970FB6F894DEBF0FBECDBFBE016F5F96
:1005D0007F4F4AE050E08DDCC2DF2A960FB6F894D8
:1005E000DEBF0FBECDBFCF91DF910895DF93CF93D4
:1005F000CDB7DEB72F970FB6F894DEBF0FBECDBFD5
:10060000AE014F5F5F4F2AE030E039DCA8DF2F9664
:100610000FB6F894DEBF0FBECDBFCF91DF91089526
:1006200080910D02089580910C020895FC011082C2
:1006300020910C02222319F066EA71E0F6DB109299
:10064000A60110920C0210920D025CDF08951F9318
:1006500080910D02882361F080910C02882341F083
:1006600010920C0210920D021091A6014BDF01C0F6
:1006700010E0812F1F91089510920D0210920C022C
:100680001092A60110920B021092400110924101AB
:100690000895FB01108290E009C02FE738E341E0A4
:1006A000215030404040E1F700C0000020910D0291
:1006B000222329F49F5F292F2150281770F39817C0
:1006C00039F0CB0166EA71E0B0DB1CDF81E0089510
:1006D00080E008951F920F920FB60F9211241F937E
:1006E0002F933F934F935F936F937F938F939F933A
:1006F000AF93BF93EF93FF931CB180910D028823BA
:1007000071F500DFE0910C02E33608F51A3021F0B4
:100710001D3011F0112391F4EE2309F44FC01A306B
:1007200021F01D3011F0112349F4AE2FB0E0AA558D
:10073000BE4F1C9281E080930D0205C0AE2FB0E049
:10074000AA55BE4F1C93EF5FE0930C0237C0F0E058
:10075000EA55FE4F108281E080930D022FC08091F8
:100760000B02882359F5E0914001E33600F51A3079
:1007700021F01D3011F0112389F4EE23F9F01A3025
:1007800021F01D3011F0112349F4AE2FB0E0AF5B22
:10079000BE4F1C9281E080930B0205C0AE2FB0E0EB
:1007A000AF5BBE4F1C93EF5FE093400107C0F0E0EA
:1007B000EF5BFE4F108281E080930B02FF91EF917F
:1007C000BF91AF919F918F917F916F915F914F9169
:1007D0003F912F911F910F900FBE0F901F90189572
:1007E000282F392FF90120E030E080E0A8E112C085
:1007F000419198E0542F5827B52FB17050FD8A27AA
:100800008695B13009F48068915011F04695F2CF89
:100810002F5F3F4F2617370759F70895FB01518186
:1008200040E0208130E0242B352B803171F4A90188
:100830004E7FA3E0440F551FAA95E1F796812CE067
:1008400030E0291B3109240F351F37FF05C03095D3
:1008500021953F4FA1E001C0A0E0883211F0823223
:1008600089F4848190E0807690708032910539F02F
:100870008034910531F0009729F4287F03C02C7F44
:1008800001C02E7FA901E4E056954795EA95E1F76E
:10089000CA01880F991F63E0440F551F6A95E1F75D
:1008A000840F951F2F70307060E872E0269FA001C2
:1008B000279F500D369F500D1124AA2311F440504C
:1008C0005E4F9A01232F332726952695280F391F2F
:1008D000AA2319F0309521953F4FC9018A5D9D4F9C
:1008E00047E08930940710F020ED37E0C901089502
:1008F0001F93CF93DF93FB01318120E09081C92FBB
:10090000D0E0C22BD32B803171F49E012E7F13E0F7
:10091000220F331F1A95E1F79681CCE0D0E0C91B76
:10092000D109C20FD31FD7FF05C0D095C195DF4FA6
:1009300011E001C010E0883211F0823289F4848124
:1009400090E0807690708032910539F08034910586
:1009500031F0009729F4C87F03C0CC7F01C0CE7F5F
:10096000BE01B4E076956795BA95E1F780E090E036
:1009700020E137E240E050E063D9CF70D07041E72A
:1009800052E0C49F9001C59F300DD49F300D1124BB
:1009900040E050E0260F371F481F591F112339F040
:1009A00050954095309521953F4F4F4F5F4FB9017E
:1009B000CA01DF91CF911F910895CF92DF92FF92EC
:1009C0000F931F93CF93DF939C01162F072FF42EC5
:1009D0008EEBB9017FD4C801C92EE6016E01D82E75
:1009E000E60102C02DD489936E01C11ACF14D0F351
:1009F000812F902F69E070E0F3DE882311F083E00F
:100A000001C080E0DF91CF911F910F91FF90DF90A7
:100A1000CF9008950F931F93CF93DF938C01EB0139
:100A2000F8018081BE010FD4F801808381508D3F91
:100A300040F48881883239F0803129F0823281F7A0
:100A400002C081E001C080E0DF91CF911F910F9142
:100A500008951F93CF93DF93EC014CD384EBBE0139
:100A600039D481E0A2D3182F45D381E0112309F4B2
:100A700080E0DF91CF911F9108951F93DF93CF9373
:100A800000D0CDB7DEB7182F69837A8333D3B6D2BF
:100A900069817A81882349F0113019F084E41DD4EA
:100AA00002C084E417D480E001C082E00F900F9070
:100AB000CF91DF911F91089581E077D391E081116B
:100AC00090E0892F0895CF92DF92EF92FF920F93DB
:100AD0001F93DF93CF93CDB7DEB728970FB6F89467
:100AE000DEBF0FBECDBF8B01473008F458C02CEFDE
:100AF000893192070CF453C0E7E280319E070CF075
:100B00004EC097FF05C0909581959F4F41E001C071
:100B100040E06E010894C11CD11C760101C0C901DE
:100B20006AE070E04887ABD89B01805DF701819354
:100B30007F015E2F5C1948851216130684F39E010F
:100B40002F5F3F4F852F992787FD9095442351F0C4
:100B5000820F931F2DE2FC01208320E0CE0101963D
:100B60003EE204C0820F931F2BE2F5CFF801E20FA3
:100B7000F11DDC01A50FB11D4C9140832F5F515039
:100B800031F4F801E20FF11D30832F5FEFCF57FFF3
:100B9000EDCFF801E20FF11D108280E001C081E08D
:100BA00028960FB6F894DEBF0FBECDBFCF91DF9170
:100BB0001F910F91FF90EF90DF90CF900895BF921B
:100BC000CF92DF92EF92FF920F931F93DF93CF9319
:100BD000CDB7DEB729970FB6F894DEBF0FBECDBFF5
:100BE0008C016B0187D2C8017E010894E11CF11CC5
:100BF000B70149E0E2DEB82E882339F4F80180819C
:100C0000B7010CDEF601918380838B2D29960FB6F8
:100C1000F894DEBF0FBECDBFCF91DF911F910F9132
:100C2000FF90EF90DF90CF90BF900895CF92DF922A
:100C3000EF92FF920F931F93DF93CF93CDB7DEB761
:100C400029970FB6F894DEBF0FBECDBFD82E7B011B
:100C500080E090E08E010F5F1F4FB80149E0ADDEEC
:100C6000C82E882331F48D2DB801D8DDF70191838A
:100C700080838C2D29960FB6F894DEBF0FBECDBFB2
:100C8000CF91DF911F910F91FF90EF90DF90CF9068
:100C90000895BF92CF92DF92EF92FF920F931F932E
:100CA000DF93CF93CDB7DEB729970FB6F894DEBFA9
:100CB0000FBECDBF8C016B011DD2C8017E0108940F
:100CC000E11CF11CB70149E078DEB82E882349F415
:100CD000F8018081B7010CDEF601608371838283A5
:100CE00093838B2D29960FB6F894DEBF0FBECDBF30
:100CF000CF91DF911F910F91FF90EF90DF90CF90F8
:100D0000BF900895CF92DF92EF92FF920F931F93BF
:100D1000DF93CF93CDB7DEB729970FB6F894DEBF38
:100D20000FBECDBFD82E7B0180E090E08E010F5F1B
:100D30001F4FB80149E041DEC82E882341F48D2DB4
:100D4000B801D6DDF70160837183828393838C2D94
:100D500029960FB6F894DEBF0FBECDBFCF91DF91BD
:100D60001F910F91FF90EF90DF90CF9008956F92B9
:100D70007F928F929F92BF92CF92DF92EF92FF92DB
:100D80000F931F93DF93CF93CDB7DEB76A970FB65C
:100D9000F894DEBF0FBECDBF8A012A3008F490C0A0
:100DA000613C2DEB720720EF82072FEF92070CF4C6
:100DB00087C06038E6E97E07E8E98E07E0E09E0735
:100DC0000CF07EC097FF0AC0909580957095619554
:100DD0007F4F8F4F9F4FBB24B39401C0BB2439E09A
:100DE000C32ED12CCC0EDD1E76014E010894811C41
:100DF000911C23E1622E712C6C0E7D1E2AE030E0E6
:100E000040E050E04FD72B8B3C8B4D8B5E8B6F8B34
:100E1000788F898F9A8FD401F30188E001900D9229
:100E20008150E1F769817A818B819C812D81205DE0
:100E3000F70121937F014E2F4C191616170618063D
:100E40001906E4F2842F8250823048F4E42FFF2701
:100E5000E7FDF095EC0FFD1F80E381874F5F9E015A
:100E6000275F3F4F842F992787FD9095BB2051F036
:100E7000820F931F2DE2FC01208320E0CE01099612
:100E80003EE204C0820F931F2BE2F5CFF801E20F80
:100E9000F11DDC01A40FB11D5C9150832F5F415007
:100EA000433031F4F801E20FF11D30832F5FEECFB4
:100EB00047FFECCFF801E20FF11D108280E001C086
:100EC00081E06A960FB6F894DEBF0FBECDBFCF911A
:100ED000DF911F910F91FF90EF90DF90CF90BF9027
:100EE0009F908F907F906F900895FF920F931F9324
:100EF000CF93DF93EC01162F042FF22EFBD07ED080
:100F0000882379F08EE4BE01E5D1812F52D1802F64
:100F100050D18881883211F0823229F48F2D49D145
:100F200002C081E001C080E0DF91CF911F910F915D
:100F3000FF900895EF92FF920F931F93DF93CF934B
:100F40000F92CDB7DEB77C018B014983D3D056D049
:100F50004981882321F0C701B8012FDD01C081E05C
:100F60000F90CF91DF911F910F91FF90EF90089517
:100F70001F93DF93CF9300D0CDB7DEB7182F6983CF
:100F80007A83B8D03BD069817A81882389F0113087
:100F900019F088E4A2D102C088E49CD18FE19EE4DC
:100FA0000197F1F700C00000113021F08ED002C08F
:100FB00082E001C080E00F900F90CF91DF911F91F0
:100FC00008951F93CF93DF93EC0194D017D088231B
:100FD00081F088EBBE017ED11FEF11501F3F21F041
:100FE00081E0E3D08823C9F381E0112319F080E088
:100FF00001C081E0DF91CF911F910895E09111022E
:10100000F091120290818091100289230895E0915D
:101010000E02F0910F02808190911002892B808343
:10102000E0911302F0911402808190911002892BBB
:10103000808308951F93DF93CF930F92CDB7DEB7D0
:101040001FB7F894E0911302F0911402908120915F
:101050001002922B908395E09A95F1F70000882377
:1010600051F0E0911302F09114022081909110024E
:10107000909592239083E0E2EA95F1F7E0911102D6
:10108000F0911202908120911002922309F480E0E5
:10109000F5E7FA95F1F70000E0911302F0911402E0
:1010A000208190911002909592239083662319F0ED
:1010B0008983ADDF89811FBF9AE19A95F1F700C05E
:1010C0000F90CF91DF911F910895E0911302F0915D
:1010D0001402908180911002809589238083E09191
:1010E0000E02F0910F029081809110028095892369
:1010F00080830895E0910E02F0910F02908180911B
:101100001002809589238083E0911302F0911402EC
:10111000808190911002892B80838FEB93E001975F
:10112000F1F700C000009FB7F894E0911302F0912E
:101130001402208180911002809582238083EAEA44
:10114000EA95F1F700C0E0911102F09112022081BE
:10115000809110029FBFEFE3F3E03197F1F700C0F9
:101160000000E0911102F091120290813091100282
:10117000932311F08223089581E00895509314027F
:101180004093130270930F0260930E029093120229
:101190008093110281E090E002C0880F991F2A9588
:1011A000E2F780931002A6DF0895817060E042DFCD
:1011B00008950F931F93182F08E0812F8170F5DF9A
:1011C0001695811110680150C1F7812F1F910F9161
:1011D00008950F931F93182F08E0812F817001301D
:1011E00011F060E001C061E025DF16958111106803
:1011F000015099F7812F1F910F910895FF920F933E
:101200001F93CF93DF93182FEB01F42E73DF2097FA
:1012100041F085E5CEDF08E08991CBDF0150E1F7B1
:1012200002C08CECC6DFFF2019F0812FD2DF02C094
:10123000812FBFDFDF91CF911F910F91FF90089514
:101240008FEFB7DF0895DF92EF92FF920F931F9316
:10125000CF93DF93182FEB014DDF882369F580EFE3
:10126000A8DFEE2400E498EFD92ED00E81E09DDFB8
:10127000F82E81E09ADF882319F0FF2069F01FC063
:10128000FF2051F4011728F0888180FF05C0101756
:1012900019F0E02EFF24F3948F2D87DF8881869547
:1012A0008883FF2011F08068888301500D15F1F6C6
:1012B000002339F02196D7CFEE24EA9402C08EEFB6
:1012C000E82E8E2DDF91CF911F910F91FF90EF901F
:1012D000DF90089540E092DF089541E08FDF0895A8
:1012E0008FEF92E5A7E081509040A040E1F700C069
:1012F000000087E690E033D983E790E030D9089585
:101300008FEF99E6A8E181509040A040E1F700C03E
:101310000000B2D985E790E022D983E790E01FD999
:1013200006C0AFE1BEE41197F1F700C0000078D924
:101330008823B9F3A1D98AE790E011D983E790E037
:101340000ED906C08FE19EE40197F1F700C00000BE
:1013500067D98823B9F390D98FE790E000D983E764
:1013600090E0FDD806C0AFE1BEE41197F1F700C0F0
:10137000000056D98823B9F3B3DF08950F931F9364
:10138000DF93CF93CDB7DEB76E970FB6F894DEBF7D
:101390000FBECDBF80919100909192009A83898376
:1013A000FE0133968CE1DF011D928A95E9F7949A4C
:1013B0008FEF9AEDAAE181509040A040E1F700C084
:1013C000000082B390E1892782BB8E010F5F1F4F1F
:1013D00053D989E890E0C3D883E790E0C0D88FE084
:1013E000B80157D98823A1F3C80167E970E0F8D4A0
:1013F000009759F415D9882359F3C80117D9C801A2
:1014000067E970E0EDD4009719F37ADF6E960FB6B6
:10141000F894DEBF0FBECDBFCF91DF911F910F912A
:101420000895EF92FF920F931F93DF93CF93CDB761
:10143000DEB7CC54D0400FB6F894DEBF0FBECDBFA0
:101440008C017B012FEF32E547E0215030404040D6
:10145000E1F700C0000010D98FEA90E080D888EB57
:1014600090E07DD8C7017BD888EB90E078D883E7FF
:1014700090E075D890E00AC09F5F2FEF32E547E01B
:10148000215030404040E1F700C000002D969FAF52
:101490002D97C9D82D969FAD2D97882319F095309B
:1014A00021F41EC0953041F71BC0CE010196BED875
:1014B00089818E33A9F4C80152D8DED88AE14BD88D
:1014C0008E01005F1F4F84E6B801E3D8882351F0F6
:1014D000C80160EA70E084D421E0009721F402C0E2
:1014E0008BE139D820E0822FC45BDF4F0FB6F89430
:1014F000DEBF0FBECDBFCF91DF911F910F91FF9047
:10150000EF900895EF92FF920F931F93DF93CF9385
:10151000CDB7DEB76C970FB6F894DEBF0FBECDBF68
:101520007C018FEF92E5A7E081509040A040E1F769
:1015300000C00000A1D88AEB90E011D883E790E0CA
:101540000ED89AD88E010C5F1F4F8AE0B801A1D83F
:10155000882309F442C0C80167EA70E041D40097CB
:10156000E1F1C80163EC70E016D4DC011196FE01D4
:10157000319680E002C091938F5F9D919C3219F06B
:101580008430C9F702C0882341F1CE010196DBD334
:10159000082F85EC90E0E3D7802F8F5F90E0F2D7A3
:1015A0008EEC90E0DCD7C701DAD781ED90E0D7D799
:1015B000C701D5D788EB90E0D2D783E790E0CFD7AB
:1015C0005BD88AE0BE016C5F7F4F63D8882329F027
:1015D00021E030E08C81803311F020E030E0C9015F
:1015E0006C960FB6F894DEBF0FBECDBFCF91DF91E2
:1015F0001F910F91FF90EF900895CF93DF93EC012F
:1016000089ED90E0ACD7CE01AAD78DED90E0A7D7B9
:1016100083E790E0A4D7DF91CF9108958FED90E01C
:101620009ED783E790E09BD7089584EE90E097D70C
:1016300083E790E094D7089508958F929F92AF9298
:10164000BF92CF92DF92EF92FF920F931F93DF939F
:10165000CF93CDB7DEB7C85CD0400FB6F894DEBFED
:101660000FBECDBF4C015B016A0119828E010B597F
:101670001F4FF801108200D888EE90E070D783E702
:1016800090E06DD78AE07E010894E11CF11CB7015F
:1016900000D88AE0B801FDD7F4011082F50110826C
:1016A000F6011082F70101900020E9F73197EE1959
:1016B000FF09E431F10508F447C0F801808188236F
:1016C00009F442C0C70164EF70E065D30097E1F10F
:1016D000F80101900020E9F73197E01BF10BE630AB
:1016E000F10590F5C401B801A0D3C70169EF70E01E
:1016F00052D3FC013396D50180E090E002C06D9397
:10170000C901AF016191623231F09C012F5F3F4FFF
:1017100020313105A1F7A80EB91EF5011082DA01BA
:101720001396F60180E090E002C04193C9014D910B
:10173000423231F09C012F5F3F4F20313105A9F734
:10174000C80ED91EF6011082CBDDC853DF4F0FB68D
:10175000F894DEBF0FBECDBFCF91DF911F910F91E7
:10176000FF90EF90DF90CF90BF90AF909F908F90C1
:10177000089587B3837C87BB87B38C6287BB81E581
:101780008DB981E08EB908958FB9779BFECF8FB167
:101790000895C1988F71F8DF8FEFF6DFC19A089531
:1017A000EF92FF920F931F93DF93CF930F92CDB7DA
:1017B000DEB7162F042FC1988F717983E5DF798109
:1017C000412F572F7A0105C08FEFDEDFF70181939C
:1017D0007F018E2D811B8017B8F3C19A0F90CF9196
:1017E000DF911F910F91FF90EF900895DF93CF93BA
:1017F0000F92CDB7DEB7C1988F7180626983C4DF65
:101800006981862FC1DFC19A0F90CF91DF91089532
:10181000EF92FF920F931F93DF93CF930F92CDB769
:10182000DEB7162F042FC1988F7180627983ACDFE9
:101830007981412F572F7A0104C0F70181917F01EF
:10184000A3DF8E2D811B8017C0F3C19A0F90CF911B
:10185000DF911F910F91FF90EF90089520E030E00D
:101860000496FB01E20FF31FDC01A21BB30B4C91AA
:1018700040832F5F3F4F2530310599F708950F932F
:101880001F93DF93CF9300D000D00F92CDB7DEB778
:10189000FB018823A1F48DEF90E0AB0125E0DA0194
:1018A0000D90AD01DC010D92CD012150C1F7CF01AA
:1018B0008E010F5F1F4FB801D1DF8AE015C0813064
:1018C000B9F482E091E0AB0125E0DA010D90AD01C1
:1018D000DC010D92CD012150C1F7CF018E010F5FC8
:1018E0001F4FB801BBDF8BE0B80145E091DF41C07D
:1018F000823071F487E091E0AB0125E0DA010D90D0
:10190000AD01DC010D92CD012150C1F78CE02FC05B
:10191000833071F48CE091E0AB0125E0DA010D90A9
:10192000AD01DC010D92CD012150C1F78DE01FC04A
:10193000843071F481E191E0AB0125E0DA010D9092
:10194000AD01DC010D92CD012150C1F78EE00FC039
:10195000853079F486E191E0AB0125E0DA010D9064
:10196000AD01DC010D92CD012150C1F78FE0648102
:101970003DDF0F900F900F900F900F90CF91DF9160
:101980001F910F9108950F931F93DF93CF9300D072
:1019900000D00F92CDB7DEB7ABE1B1E0282F392FE1
:1019A000F90125E001900D922150E1F78E010F5FC2
:1019B0001F4FB80153DF8AE0B80145E029DF80E11D
:1019C000B80145E025DF0F900F900F900F900F901A
:1019D000CF91DF911F910F910895C19882EED4DECF
:1019E000C19A0895C19881EECFDEC19A089580E032
:1019F0006DEF70E044DF80E0CCDE682F616080E056
:101A0000F5DE80E0C6DE682F626080E0EFDE87E012
:101A100060E7ECDEE2DFE6DFC09A8BE291E001975F
:101A2000F1F700C000000895C09880E0B2DE682F92
:101A30006E7F80E0DBDE80E0ACDE682F626080E0FD
:101A4000D5DE87E060E7D2DECDDF8BE291E0019763
:101A5000F1F700C000000895C1988FEF95DEC19A9C
:101A60000895CF93DF93EC01F7DF982F807496FFF2
:101A700005C0209719F0969597709883DF91CF91C4
:101A80000895EF92FF921F93DF93CF930F92CDB7FC
:101A9000DEB7182FC19881E6998376DE9981612F90
:101AA000792F7B0110E28FEF6FDEF70181937F01C9
:101AB0001150C9F7C19A87E060E498DECDDF85FF59
:101AC00003C087E060E292DE0F90CF91DF911F911B
:101AD000FF90EF900895EF92FF921F93DF93CF93C3
:101AE0000F92CDB7DEB7182F99839EDFC19880EA99
:101AF0004BDE9981612F792F7B0110E2F7018191F3
:101B00007F0142DE1150D1F7C19AC09AF8E2FA95EE
:101B1000F1F7C0984AE14A95F1F700C09DDF807364
:101B2000C9F39ADF182F85E061E060DE80E031DEE6
:101B3000682F6D7F80E05ADE5ADF81E015FF80E07C
:101B40000F90CF91DF911F91FF90EF90089586E065
:101B500020DE682F666086E049DE089586E019DEA3
:101B6000682F677D86E042DE089580E012DE682FF0
:101B70006C6080E03BDE0895B99AB89AFADDC098AF
:101B8000C19A8FE097E20197F1F700C00000DFDF14
:101B9000E5DFEBDF84E067E429DE8CE160E026DE50
:101BA00085E061E023DE81E160E220DE82E060E04A
:101BB0001DDE82E0EEDD682F616082E017DE81E0ED
:101BC000E8DD682F616081E011DE81E0E2DD682FF1
:101BD000626081E00BDE81E0DCDD682F646081E023
:101BE00005DE81E0D6DD682F686081E0FFDD81E001
:101BF000D0DD682F606181E0F9DD81E0CADD682F0A
:101C0000606281E0F3DD80E06DEF70E038DE81E05E
:101C100062E071E034DE82E067E071E030DE83E0B4
:101C20006CE071E02CDE84E061E171E028DE85E0AB
:101C300066E171E024DE8BE191E0A5DED8DE089557
:101C4000629FD001739FF001829FE00DF11D649FA0
:101C5000E00DF11D929FF00D839FF00D749FF00D2C
:101C6000659FF00D9927729FB00DE11DF91F639FCD
:101C7000B00DE11DF91FBD01CF011124089597FB9F
:101C8000092E07260AD077FD04D027D006D00020E1
:101C90001AF4709561957F4F0895F6F790958195A8
:101CA0009F4F089597FB092E05260ED057FD04D0AF
:101CB00028D00AD0001C38F45095409530952195D5
:101CC0003F4F4F4F5F4F0895F6F790958095709571
:101CD00061957F4F8F4F9F4F0895AA1BBB1B51E10A
:101CE00007C0AA1FBB1FA617B70710F0A61BB70B8C
:101CF000881F991F5A95A9F780959095BC01CD0131
:101D00000895A1E21A2EAA1BBB1BFD010DC0AA1F3C
:101D1000BB1FEE1FFF1FA217B307E407F50720F054
:101D2000A21BB30BE40BF50B661F771F881F991FCF
:101D30001A9469F760957095809590959B01AC0118
:101D4000BD01CF010895FC0188279927E8942191CE
:101D50002032E9F3293010F02E30C8F32B3239F05D
:101D60002D3231F4689403C0BCD0820F911D2191B3
:101D700020532A30C8F31EF4909581959F4F089503
:101D8000FB01DC010D900020E9F7119705900D9201
:101D90000020E1F70895FB0151915523B1F0BF01F7
:101DA000DC01052E4D91442369F010D0D9F7CD0107
:101DB0000190002049F04D91411108D0C9F3FB0179
:101DC0004111EECF81E090E001970895402539F070
:101DD000403229F440294B57465E08F01894089584
:101DE000FB0155915523B1F0BF01DC01052E4D914A
:101DF000442369F010D0D9F7CD010590002049F0B7
:101E00004D91411108D0C9F3FB014111EECF81E0A2
:101E100090E001970895402539F0403229F4402997
:101E20004B57465E08F018940895FB01DC010D90B5
:101E30000020E9F7119701900D920020E1F7089535
:101E4000FB019F01E8944230BCF04532ACF44A30CB
:101E500029F497FB1EF4909581959F4F642F772767
:101E60003CDF805D8A330CF0895D8193CB01009764
:101E7000A9F716F45DE251931082C9014EC0FA0130
:101E8000CF93FF93EF9322303CF125322CF5C22FF4
:101E9000E894CA3049F497FB3EF49095809570958C
:101EA00061957F4F8F4F9F4F2C2F33274427552706
:101EB000FF93EF9326DFEF91FF91605D6A330CF0A3
:101EC000695D6193B901CA016050704080409040E3
:101ED00059F716F4CDE2C19310828F919F91CF9163
:101EE0001CC07AE0979F902D879F802D910D112423
:101EF0000895FB019F0142306CF045325CF4642F81
:101F00007727EBDE805D8A330CF0895D8193CB010E
:101F10000097A9F71082C90100C0DC01FC01672FFE
:101F200071917723E1F7329704C07C916D937083B0
:0E1F30006291AE17BF07C8F30895F894FFCF73
:101F3E000A00534F43455441542B434D47443D31C2
:101F4E002C34000D004154453000415456300041B0
:101F5E00542B434D45453D310041542B4350415385
:101F6E000000000000000000000000000000000063
:101F7E000000000000000000000000000000004112
:101F8E00542B434D47533D00220041542B435042A6
:101F9E00533F002C0041542B435042573D002C22FE
:101FAE0000222C3134352C2200415444003B004198
:101FBE00544830004154410041542B434D47523D4B
:101FCE00312C3000222C222B00222C2200E8E8F0AB
:101FDE00F0E2C1C2C2C2C2C1C2C2C2C3C1C2C2C287
:101FEE00C4C1C2C2C2C5C1C2C2C2C6E8E8F0F0E2F4
:00000001FF
