:100000003BC055C054C053C052C051C050C04FC077
:100010004EC04DC04CC071C64AC049C048C047C060
:1000200046C045C044C0536F636B65743A206F6E21
:1000300000536F636B65743A206F66660054656D9C
:10004000702E3A20004300506F7765723A20006DA1
:100050005600543A2000503A2000533A206F6E0068
:10006000533A206F666600556E6B6E6F776E206335
:100070006F6D6D616E64000011241FBECFE5D4E08A
:10008000DEBFCDBF10E0A0E6B0E0EEEDF7E102C0CC
:1000900005900D92AA38B107D9F711E0AAE8B0E0AF
:1000A00001C01D92A831B107E1F75CD196CBA8CF72
:1000B000969AAD9A80E090E061E072DB08959698A0
:1000C000AD9880E090E060E06BDB089584EC87B948
:1000D00086EC86B90895369A349BFECF64B175B12B
:1000E00080E090E024E233E140E050E02EDA28EEB8
:1000F00033E040E050E05BDAC9010895DF93CF932D
:1001000000D0CDB7DEB786EF99E09A83898381E08E
:1001100060E070E095D28FE79FE4A2E181509040CB
:10012000A040E1F700C0000088E2BE016F5F7F4F92
:1001300060D329813A812E513040C9010F900F9030
:10014000CF91DF910895DF93CF93CDB7DEB7299795
:100150000FB6F894DEBF0FBECDBF80E090E0BE01C9
:100160006F5F7F4F49E0C9D48D818076803631F052
:1001700080E090E06B814C8120E69AD429960FB6FE
:10018000F894DEBF0FBECDBFCF91DF9108951F93CE
:10019000CF93DF93EC0110E00AC08FEF90E7A2E06D
:1001A00081509040A040E1F700C000001F5FCE01E9
:1001B00017D9813011F0143181F7DF91CF911F9160
:1001C00008950F931F93DF93CF93CDB7DEB72B978F
:1001D0000FB6F894DEBF0FBECDBF1092F100833092
:1001E000D1F0843030F4813061F0823009F083C086
:1001F00010C0853061F1853018F1863009F07BC080
:100200003CC056DF81EF90E066E270E03EDA00E04D
:1002100081C055DF17C081EF90E06DE370E035DA03
:100220006DDF8E010F5F1F4FB8014AE02FD281EFC3
:1002300090E0B80135DA81EF90E065E470E0E6CF58
:100240009699E0CF81EF90E061E370E0DFCF81EF3E
:1002500090E067E470E019DA3EDF8E010F5F1F4F18
:10026000B8014AE050E080DA81EF90E0B80118DA96
:1002700081EF90E06FE470E0C9CF81EF90E062E53C
:1002800070E003DA3BDF8E010F5F1F4FB8014AE0D9
:10029000FDD181EF90E0B80103DA81EF90E065E4F1
:1002A00070E0F3D981EF90E060E670E0F9D981EF7A
:1002B00090E066E570E0E9D90EDFB8014AE050E071
:1002C00053DA81EF90E0B801EBD981EF90E06FE471
:1002D00070E0DBD981EF90E060E670E0E1D9969BB9
:1002E00005C081EF90E06AE570E090CF81EF90E08B
:1002F00060E670E08BCF81EF90E067E670E086CF3C
:100300008FEF90E7A2E081509040A040E1F700C05D
:1003100000000F5F81EF90E063D8813011F002336D
:1003200079F72B960FB6F894DEBF0FBECDBFCF91F5
:10033000DF911F910F91089580E090E017D88823F6
:1003400039F081EF90E022D881EF90E081D939DF58
:10035000089580E090E01CDA882311F4B0DE08955F
:10036000A7DE089518BA17BA15BA80E284BB12BA8C
:1003700080E481BBABDE89E190E023D480E390E0B0
:1003800062E370E041E350E023E0C6D5DCDE79D8DB
:10039000789480E062E670E0F7D682E690E078D765
:1003A000D8DFCADFFECF282F392FF90120E030E057
:1003B00080E0A8E112C0419198E0542F5827B52F52
:1003C000B17050FD8A278695B13009F4806891504C
:1003D00011F04695F2CF2F5F3F4F2617370759F799
:1003E0000895FB01518140E0208130E0242B352B22
:1003F000803171F4A9014E7FA3E0440F551FAA95E7
:10040000E1F796812CE030E0291B3109240F351FDC
:1004100037FF05C0309521953F4FA1E001C0A0E016
:10042000883211F0823289F4848190E08076907075
:100430008032910539F08034910531F0009729F42C
:10044000287F03C02C7F01C02E7FA901E4E05695D0
:100450004795EA95E1F7CA01880F991F63E0440FB9
:10046000551F6A95E1F7840F951F2F70307060E873
:1004700072E0269FA001279F500D369F500D11243A
:10048000AA2311F440505E4F9A01232F332726955B
:100490002695280F391FAA2319F0309521953F4F33
:1004A000C9018A5D9D4F47E08930940710F020ED27
:1004B00037E0C90108951F93CF93DF93FB0131818A
:1004C00020E09081C92FD0E0C22BD32B803171F472
:1004D0009E012E7F13E0220F331F1A95E1F79681BC
:1004E000CCE0D0E0C91BD109C20FD31FD7FF05C094
:1004F000D095C195DF4F11E001C010E0883211F0B6
:10050000823289F4848190E0807690708032910507
:1005100039F08034910531F0009729F4C87F03C089
:10052000CC7F01C0CE7FBE01B4E076956795BA95C9
:10053000E1F780E090E020E137E240E050E005D8CC
:10054000CF70D07041E752E0C49F9001C59F300D3D
:10055000D49F300D112440E050E0260F371F481F74
:10056000591F112339F050954095309521953F4FF3
:100570004F4F5F4FB901CA01DF91CF911F9108958D
:10058000CF92DF92FF920F931F93CF93DF939C0143
:10059000162F072FF42E8EEBB9016AD5C801C92E8C
:1005A000E6016E01D82EE60102C018D589936E01CE
:1005B000C11ACF14D0F3812F902F69E070E0F3DEE1
:1005C000882311F083E001C080E0DF91CF911F917B
:1005D0000F91FF90DF90CF9008950F931F93CF93CB
:1005E000DF938C01EB01F8018081BE01FAD4F801A0
:1005F000808381508D3F40F48881883239F080318A
:1006000029F0823281F702C081E001C080E0DF91F1
:10061000CF911F910F9108951F93CF93DF93EC011A
:1006200037D484EBBE0124D581E08DD4182F30D48B
:1006300081E0112309F480E0DF91CF911F910895AB
:100640001F93DF93CF9300D0CDB7DEB7182F698308
:100650007A831ED4A1D369817A81882349F011302D
:1006600019F084E408D502C084E402D580E001C01A
:1006700082E00F900F90CF91DF911F91089581E05C
:1006800062D491E0811190E0892F0895CF92DF929A
:10069000EF92FF920F931F93DF93CF93CDB7DEB707
:1006A00028970FB6F894DEBF0FBECDBF8B01473041
:1006B00008F458C02CEF893192070CF453C0E7E2DC
:1006C00080319E070CF04EC097FF05C09095819534
:1006D0009F4F41E001C040E06E010894C11CD11C55
:1006E000760101C0C9016AE070E048874DD79B01DF
:1006F000805DF70181937F015E2F5C19488512169A
:10070000130684F39E012F5F3F4F852F992787FDA6
:100710009095442351F0820F931F2DE2FC0120831A
:1007200020E0CE0101963EE204C0820F931F2BE22F
:10073000F5CFF801E20FF11DDC01A50FB11D4C91C1
:1007400040832F5F515031F4F801E20FF11D3083E7
:100750002F5FEFCF57FFEDCFF801E20FF11D1082B1
:1007600080E001C081E028960FB6F894DEBF0FBE8E
:10077000CDBFCF91DF911F910F91FF90EF90DF9050
:10078000CF900895BF92CF92DF92EF92FF920F9396
:100790001F93DF93CF93CDB7DEB729970FB6F894A9
:1007A000DEBF0FBECDBF8C016B0172D3C8017E01CD
:1007B0000894E11CF11CB70149E0E2DEB82E882361
:1007C00039F4F8018081B7010CDEF6019183808352
:1007D0008B2D29960FB6F894DEBF0FBECDBFCF91FB
:1007E000DF911F910F91FF90EF90DF90CF90BF901E
:1007F0000895CF92DF92EF92FF920F931F93DF93B2
:10080000CF93CDB7DEB729970FB6F894DEBF0FBEF2
:10081000CDBFD82E7B0180E090E08E010F5F1F4F8F
:10082000B80149E0ADDEC82E882331F48D2DB80122
:10083000D8DDF701918380838C2D29960FB6F8942B
:10084000DEBF0FBECDBFCF91DF911F910F91FF9003
:10085000EF90DF90CF900895BF92CF92DF92EF920A
:10086000FF920F931F93DF93CF93CDB7DEB72997F6
:100870000FB6F894DEBF0FBECDBF8C016B0108D35D
:10088000C8017E010894E11CF11CB70149E078DE43
:10089000B82E882349F4F8018081B7010CDEF601F7
:1008A00060837183828393838B2D29960FB6F8948E
:1008B000DEBF0FBECDBFCF91DF911F910F91FF9093
:1008C000EF90DF90CF90BF900895CF92DF92EF929C
:1008D000FF920F931F93DF93CF93CDB7DEB7299786
:1008E0000FB6F894DEBF0FBECDBFD82E7B0180E0DF
:1008F00090E08E010F5F1F4FB80149E041DEC82E26
:10090000882341F48D2DB801D6DDF7016083718312
:10091000828393838C2D29960FB6F894DEBF0FBE89
:10092000CDBFCF91DF911F910F91FF90EF90DF909E
:10093000CF9008956F927F928F929F92BF92CF92A5
:10094000DF92EF92FF920F931F93DF93CF93CDB778
:10095000DEB76A970FB6F894DEBF0FBECDBF8A012F
:100960002A3008F490C0613C2DEB720720EF82071B
:100970002FEF92070CF487C06038E6E97E07E8E9BC
:100980008E07E0E09E070CF07EC097FF0AC09095AE
:100990008095709561957F4F8F4F9F4FBB24B39487
:1009A00001C0BB2439E0C32ED12CCC0EDD1E760154
:1009B0004E010894811C911C23E1622E712C6C0E57
:1009C0007D1E2AE030E040E050E0F1D52B8B3C8BDF
:1009D0004D8B5E8B6F8B788F898F9A8FD401F3014B
:1009E00088E001900D928150E1F769817A818B81D5
:1009F0009C812D81205DF70121937F014E2F4C19A1
:100A00001616170618061906E4F2842F8250823053
:100A100048F4E42FFF27E7FDF095EC0FFD1F80E37E
:100A200081874F5F9E01275F3F4F842F992787FD66
:100A30009095BB2051F0820F931F2DE2FC01208383
:100A400020E0CE0109963EE204C0820F931F2BE204
:100A5000F5CFF801E20FF11DDC01A40FB11D5C918F
:100A600050832F5F4150433031F4F801E20FF11D04
:100A700030832F5FEECF47FFECCFF801E20FF11D7F
:100A8000108280E001C081E06A960FB6F894DEBF64
:100A90000FBECDBFCF91DF911F910F91FF90EF90CF
:100AA000DF90CF90BF909F908F907F906F90089530
:100AB000FF920F931F93CF93DF93EC01162F042F18
:100AC000F22EE6D169D1882379F08EE4BE01D0D22E
:100AD000812F3DD2802F3BD28881883211F0823223
:100AE00029F48F2D34D202C081E001C080E0DF9173
:100AF000CF911F910F91FF900895EF92FF920F9366
:100B00001F93DF93CF930F92CDB7DEB77C018B019C
:100B10004983BED141D14981882321F0C701B80161
:100B20002FDD01C081E00F90CF91DF911F910F91D8
:100B3000FF90EF9008951F93DF93CF9300D0CDB730
:100B4000DEB7182F69837A83A3D126D169817A8190
:100B5000882389F0113019F088E48DD202C088E42E
:100B600087D28FE19EE40197F1F700C000001130B9
:100B700021F079D102C082E001C080E00F900F9097
:100B8000CF91DF911F9108951F93CF93DF93EC01D5
:100B90007FD102D1882381F088EBBE0169D21FEF9B
:100BA00011501F3F21F081E0CED18823C9F381E0AD
:100BB000112319F080E001C081E0DF91CF911F91F6
:100BC000089590BD89B986E880BD88E98AB91092F8
:100BD0008A001092F00008955D9BFECF8CB90895B5
:100BE000EF92FF92CF93DF93E82EE7017E01F92E7B
:100BF000E70101C0F1DF89918823E1F7DF91CF910F
:100C0000FF90EF900895DF93CF93CDB7DEB72A978B
:100C10000FB6F894DEBF0FBECDBFBE016F5F7F4F32
:100C20004AE050E048D5DCDF2A960FB6F894DEBFE4
:100C30000FBECDBFCF91DF910895DF93CF93CDB796
:100C4000DEB72A970FB6F894DEBF0FBECDBFBE0148
:100C50006F5F7F4F4AE050E087D5C2DF2A960FB61C
:100C6000F894DEBF0FBECDBFCF91DF910895DF9323
:100C7000CF93CDB7DEB72F970FB6F894DEBF0FBE78
:100C8000CDBFAE014F5F5F4F2AE030E033D5A8DF24
:100C90002F960FB6F894DEBF0FBECDBFCF91DF9178
:100CA00008958091F000089580918A0008958091C0
:100CB000F000882359F080918A00882339F010923F
:100CC0008A001092F0002BE830E002C020E030E013
:100CD000C90108958091F000882359F080918A001D
:100CE000882349F010928A001092F00080918B00C6
:100CF000089580E0089580E008951F920F920FB646
:100D00000F9211248F939F93EF93FF938CB1909147
:100D10008A00933628F58A3021F08D3011F088232F
:100D200021F490918A00992371F1E0918A00F0E01A
:100D3000E557FF4F80838A3021F08D3011F08823F2
:100D400049F4E0918A00F0E0E557FF4F108281E01E
:100D50008093F00080918A008F5F80938A0013C097
:100D600090918A00E92FF0E0E557FF4F80839F5F65
:100D700090938A00E0918A00F0E0E557FF4F1082DF
:100D800081E08093F000FF91EF919F918F910F9000
:100D90000FBE0F901F901895E0911401F09115016E
:100DA00090818091130189230895E0911101F091C0
:100DB0001201808190911301892B8083E0911601AB
:100DC000F0911701808190911301892B8083089500
:100DD0001F93DF93CF930F92CDB7DEB71FB7F89471
:100DE000E0911601F0911701908120911301922B4F
:100DF000908395E09A95F1F70000882351F0E091F7
:100E00001601F09117012081909113019095922382
:100E10009083E0E2EA95F1F7E0911401F091150179
:100E2000908120911301922309F480E0F5E7FA956F
:100E3000F1F70000E0911601F091170120819091E7
:100E40001301909592239083662319F08983ADDF77
:100E500089811FBF9AE19A95F1F700C00F90CF9159
:100E6000DF911F910895E0911601F0911701908193
:100E700080911301809589238083E0911101F09185
:100E800012019081809113018095892380830895B8
:100E9000E0911101F09112019081809113018095F0
:100EA00089238083E0911601F09117018081909150
:100EB0001301892B80838FEB93E00197F1F700C03A
:100EC00000009FB7F894E0911601F091170120817E
:100ED00080911301809582238083EAEAEA95F1F7F5
:100EE00000C0E0911401F09115012081809113015F
:100EF0009FBFEFE3F3E03197F1F700C00000E0910E
:100F00001401F0911501908130911301932311F098
:100F10008223089581E008955093170140931601AC
:100F20007093120160931101909315018093140145
:100F300081E090E002C0880F991F2A95E2F7809324
:100F40001301A6DF0895817060E042DF08950F93DA
:100F50001F93182F08E0812F8170F5DF16958111FE
:100F600010680150C1F7812F1F910F9108950F93C1
:100F70001F93182F08E0812F8170013011F060E07D
:100F800001C061E025DF169581111068015099F7C5
:100F9000812F1F910F910895FF920F931F93CF936D
:100FA000DF93182FEB01F42E73DF209741F085E5D6
:100FB000CEDF08E08991CBDF0150E1F702C08CEC75
:100FC000C6DFFF2019F0812FD2DF02C0812FBFDFE3
:100FD000DF91CF911F910F91FF9008958FEFB7DFB1
:100FE0000895DF92EF92FF920F931F93CF93DF93B9
:100FF000182FEB014DDF882369F580EFA8DFEE2481
:1010000000E498EFD92ED00E81E09DDFF82E81E02C
:101010009ADF882319F0FF2069F01FC0FF2051F4E8
:10102000011728F0888180FF05C0101719F0E02E05
:10103000FF24F3948F2D87DF888186958883FF2096
:1010400011F08068888301500D15F1F6002339F006
:101050002196D7CFEE24EA9402C08EEFE82E8E2D93
:10106000DF91CF911F910F91FF90EF90DF90089546
:1010700040E092DF089541E08FDF089587B3837CDD
:1010800087BB87B38C6287BB81E58DB981E08EB960
:1010900008958FB9779BFECF8FB10895C1988F7156
:1010A000F8DF8FEFF6DFC19A0895EF92FF920F936A
:1010B0001F93DF93CF930F92CDB7DEB7162F042F78
:1010C000C1988F717983E5DF7981412F572F7A019C
:1010D00005C08FEFDEDFF70181937F018E2D811B2D
:1010E0008017B8F3C19A0F90CF91DF911F910F91A4
:1010F000FF90EF900895DF93CF930F92CDB7DEB7B7
:10110000C1988F7180626983C4DF6981862FC1DFD6
:10111000C19A0F90CF91DF910895EF92FF920F93B4
:101120001F93DF93CF930F92CDB7DEB7162F042F07
:10113000C1988F7180627983ACDF7981412F572FFD
:101140007A0104C0F70181917F01A3DF8E2D811BFD
:101150008017C0F3C19A0F90CF91DF911F910F912B
:10116000FF90EF90089520E030E00496FB01E20F3D
:10117000F31FDC01A21BB30B4C9140832F5F3F4F49
:101180002530310599F708950F931F93DF93CF937F
:1011900000D000D00F92CDB7DEB7FB018823A1F4B9
:1011A00087E690E0AB0125E0DA010D90AD01DC01AE
:1011B0000D92CD012150C1F7CF018E010F5F1F4F5E
:1011C000B801D1DF8AE015C08130B9F48CE690E037
:1011D000AB0125E0DA010D90AD01DC010D92CD01EE
:1011E0002150C1F7CF018E010F5F1F4FB801BBDF48
:1011F0008BE0B80145E091DF41C0823071F481E7B6
:1012000090E0AB0125E0DA010D90AD01DC010D921B
:10121000CD012150C1F78CE02FC0833071F486E7F7
:1012200090E0AB0125E0DA010D90AD01DC010D92FB
:10123000CD012150C1F78DE01FC0843071F48BE7E0
:1012400090E0AB0125E0DA010D90AD01DC010D92DB
:10125000CD012150C1F78EE00FC0853079F480E8D0
:1012600090E0AB0125E0DA010D90AD01DC010D92BB
:10127000CD012150C1F78FE064813DDF0F900F90C9
:101280000F900F900F90CF91DF911F910F910895C4
:101290000F931F93DF93CF9300D000D00F92CDB761
:1012A000DEB7A5E8B0E0282F392FF90125E001903D
:1012B0000D922150E1F78E010F5F1F4FB80153DFF0
:1012C0008AE0B80145E029DF80E1B80145E025DF8B
:1012D0000F900F900F900F900F90CF91DF911F9173
:1012E0000F910895C19882EED4DEC19A0895C198F5
:1012F00081EECFDEC19A089580E067E670E044DFBA
:1013000080E0CCDE682F616080E0F5DE80E0C6DE44
:10131000682F626080E0EFDE87E060E7ECDEE2DF0E
:10132000E6DFC09A8BE291E00197F1F700C0000080
:101330000895C09880E0B2DE682F6E7F80E0DBDE2B
:1013400080E0ACDE682F626080E0D5DE87E060E799
:10135000D2DECDDF8BE291E00197F1F700C0000013
:101360000895C1988FEF95DEC19A0895CF93DF93CA
:10137000EC01F7DF982F807496FF05C0209719F0D5
:10138000969597709883DF91CF910895EF92FF9291
:101390001F93DF93CF930F92CDB7DEB7182FC1986D
:1013A00081E6998376DE9981612F792F7B0110E2A6
:1013B0008FEF6FDEF70181937F011150C9F7C19A5A
:1013C00087E060E498DECDDF85FF03C087E060E260
:1013D00092DE0F90CF91DF911F91FF90EF900895D3
:1013E000EF92FF921F93DF93CF930F92CDB7DEB7AB
:1013F000182F99839EDFC19880EA4BDE9981612F77
:10140000792F7B0110E2F70181917F0142DE1150BB
:10141000D1F7C19AC09AF8E2FA95F1F7C0984AE17B
:101420004A95F1F700C09DDF8073C9F39ADF182F4A
:1014300085E061E060DE80E031DE682F6D7F80E076
:101440005ADE5ADF81E015FF80E00F90CF91DF91E7
:101450001F91FF90EF90089586E020DE682F666070
:1014600086E049DE089586E019DE682F677D86E014
:1014700042DE089580E012DE682F6C6080E03BDE83
:101480000895B99AB89AFADDC098C19A8FE097E2A8
:101490000197F1F700C00000DFDFE5DFEBDF84E05C
:1014A00067E429DE8CE160E026DE85E061E023DE92
:1014B00081E160E220DE82E060E01DDE82E0EEDDC0
:1014C000682F616082E017DE81E0E8DD682F6160EF
:1014D00081E011DE81E0E2DD682F626081E00BDEF9
:1014E00081E0DCDD682F646081E005DE81E0D6DD2F
:1014F000682F686081E0FFDD81E0D0DD682F6061EA
:1015000081E0F9DD81E0CADD682F606281E0F3DD12
:1015100080E067E670E038DE81E06CE670E034DEA3
:1015200082E061E770E030DE83E066E770E02CDEA9
:1015300084E06BE770E028DE85E060E870E024DEA0
:1015400085E890E0A5DED8DE0895629FD001739F04
:10155000F001829FE00DF11D649FE00DF11D929F4F
:10156000F00D839FF00D749FF00D659FF00D99278E
:10157000729FB00DE11DF91F639FB00DE11DF91FB2
:10158000BD01CF011124089597FB092E07260AD02B
:1015900077FD04D027D006D000201AF4709561950D
:1015A0007F4F0895F6F7909581959F4F089597FB8B
:1015B000092E05260ED057FD04D028D00AD0001CD5
:1015C00038F450954095309521953F4F4F4F5F4FE0
:1015D0000895F6F790958095709561957F4F8F4FA0
:1015E0009F4F0895AA1BBB1B51E107C0AA1FBB1F39
:1015F000A617B70710F0A61BB70B881F991F5A959F
:10160000A9F780959095BC01CD010895A1E21A2E0D
:10161000AA1BBB1BFD010DC0AA1FBB1FEE1FFF1F96
:10162000A217B307E407F50720F0A21BB30BE40BE6
:10163000F50B661F771F881F991F1A9469F760952D
:101640007095809590959B01AC01BD01CF010895E7
:10165000FC0188279927E89421912032E9F3293069
:1016600010F02E30C8F32B3239F02D3231F468945B
:1016700003C072D0820F911D219120532A30C8F3EC
:101680001EF4909581959F4F0895FB01DC010D900C
:101690000020E9F7119705900D920020E1F70895D9
:1016A000FB01DC010D900020E9F7119701900D92EC
:1016B0000020E1F70895FB019F01E8944230BCF05F
:1016C0004532ACF44A3029F497FB1EF4909581958D
:1016D0009F4F642F772786DF805D8A330CF0895D0A
:1016E0008193CB010097A9F716F45DE25193108224
:1016F000C90163C0FA01CF93FF93EF9322303CF10D
:1017000025322CF5C22FE894CA3049F497FB3EF4F9
:1017100090958095709561957F4F8F4F9F4F2C2F9F
:10172000332744275527FF93EF9370DFEF91FF9105
:10173000605D6A330CF0695D6193B901CA01605064
:1017400070408040904059F716F4CDE2C19310826A
:101750008F919F91CF9131C07AE0979F902D879F75
:10176000802D910D11240895FB019F0142306CF0F2
:1017700045325CF4642F772735DF805D8A330CF0C7
:10178000895D8193CB010097A9F71082C90115C02B
:10179000E199FECF9FBB8EBBE09A99278DB3089548
:1017A000262FE199FECF9FBB8EBB2DBB0FB6F894C1
:1017B000E29AE19A0FBE01960895DC01FC01672FC1
:1017C00071917723E1F7329704C07C916D93708318
:0E17D0006291AE17BF07C8F30895F894FFCFDB
:1017DE000A00534F434554E8E8F0F0E2C1C2C2C2DA
:1017EE00C2C1C2C2C2C3C1C2C2C2C4C1C2C2C2C5C8
:0A17FE00C1C2C2C2C6E8E8F0F0E282
:00000001FF
